{
  "transactions": [
    {
      "hash": "0x2d34cfc8de122580256d5a4a3ee6e54943611e6cdacfc42bb4e974f720b58a9e",
      "transactionType": "CALL",
      "contractName": null,
      "contractAddress": "0x779877a7b0d9e8603169ddbd7836e478b4624789",
      "function": "transferAndCall(address,uint256,bytes)",
      "arguments": [
        "0x9DdfaCa8183c41ad55329BdeeD9F6A8d53168B1B",
        "3000000000000000000",
        "0x26d710ce04807bfa46c1d89fcfb253e8d97b45b059b5f43cac64055e336e626f"
      ],
      "transaction": {
        "from": "0x182d0e24224193eb885a108a6246d1a3470e4613",
        "to": "0x779877a7b0d9e8603169ddbd7836e478b4624789",
        "gas": "0x14cbb",
        "value": "0x0",
        "input": "0x4000aea00000000000000000000000009ddfaca8183c41ad55329bdeed9f6a8d53168b1b00000000000000000000000000000000000000000000000029a2241af62c00000000000000000000000000000000000000000000000000000000000000000060000000000000000000000000000000000000000000000000000000000000002026d710ce04807bfa46c1d89fcfb253e8d97b45b059b5f43cac64055e336e626f",
        "nonce": "0x7",
        "chainId": "0xaa36a7"
      },
      "additionalContracts": [],
      "isFixedGasLimit": false
    }
  ],
  "receipts": [
    {
      "status": "0x1",
      "cumulativeGasUsed": "0xc2d597",
      "logs": [
        {
          "address": "0x779877a7b0d9e8603169ddbd7836e478b4624789",
          "topics": [
            "0xddf252ad1be2c89b69c2b068fc378daa952ba7f163c4a11628f55a4df523b3ef",
            "0x000000000000000000000000182d0e24224193eb885a108a6246d1a3470e4613",
            "0x0000000000000000000000009ddfaca8183c41ad55329bdeed9f6a8d53168b1b"
          ],
          "data": "0x00000000000000000000000000000000000000000000000029a2241af62c0000",
          "blockHash": "0xdbe2232810b650f55bb2bf2b7a5ecbbf924fe0a5bfcabb5ab38996423f0bc5e5",
          "blockNumber": "0x5d0ba2",
          "transactionHash": "0x2d34cfc8de122580256d5a4a3ee6e54943611e6cdacfc42bb4e974f720b58a9e",
          "transactionIndex": "0x7c",
          "logIndex": "0xf8",
          "removed": false
        },
        {
          "address": "0x779877a7b0d9e8603169ddbd7836e478b4624789",
          "topics": [
            "0xe19260aff97b920c7df27010903aeb9c8d2be5d310a2c67824cf3f15396e4c16",
            "0x000000000000000000000000182d0e24224193eb885a108a6246d1a3470e4613",
            "0x0000000000000000000000009ddfaca8183c41ad55329bdeed9f6a8d53168b1b"
          ],
          "data": "0x00000000000000000000000000000000000000000000000029a2241af62c00000000000000000000000000000000000000000000000000000000000000000040000000000000000000000000000000000000000000000000000000000000002026d710ce04807bfa46c1d89fcfb253e8d97b45b059b5f43cac64055e336e626f",
          "blockHash": "0xdbe2232810b650f55bb2bf2b7a5ecbbf924fe0a5bfcabb5ab38996423f0bc5e5",
          "blockNumber": "0x5d0ba2",
          "transactionHash": "0x2d34cfc8de122580256d5a4a3ee6e54943611e6cdacfc42bb4e974f720b58a9e",
          "transactionIndex": "0x7c",
          "logIndex": "0xf9",
          "removed": false
        },
        {
          "address": "0x9ddfaca8183c41ad55329bdeed9f6a8d53168b1b",
          "topics": [
            "0x1ced9348ff549fceab2ac57cd3a9de38edaaab274b725ee82c23e8fc8c4eec7a",
            "0x26d710ce04807bfa46c1d89fcfb253e8d97b45b059b5f43cac64055e336e626f"
          ],
          "data": "0x0000000000000000000000000000000000000000000000004563918244f400000000000000000000000000000000000000000000000000006f05b59d3b200000",
          "blockHash": "0xdbe2232810b650f55bb2bf2b7a5ecbbf924fe0a5bfcabb5ab38996423f0bc5e5",
          "blockNumber": "0x5d0ba2",
          "transactionHash": "0x2d34cfc8de122580256d5a4a3ee6e54943611e6cdacfc42bb4e974f720b58a9e",
          "transactionIndex": "0x7c",
          "logIndex": "0xfa",
          "removed": false
        }
      ],
      "logsBloom": "0x00000004000000000000000000000000000000000020000000000000020000000000000000000000000000000000000000000000000000008000000000000000000000000000000000000008000000000000000000000000000020000020000008000000000000000000000000000000000000000000000000000010000040000000000000000000000000010000800000000020000000000000000000000000000000080000000000000000010000000000000000000040000004000000000000002002000000000000000000000000000000000000000100000080000000000010000000000000840000000000000000000000000000000000000000000000",
      "type": "0x0",
      "transactionHash": "0x2d34cfc8de122580256d5a4a3ee6e54943611e6cdacfc42bb4e974f720b58a9e",
      "transactionIndex": "0x7c",
      "blockHash": "0xdbe2232810b650f55bb2bf2b7a5ecbbf924fe0a5bfcabb5ab38996423f0bc5e5",
      "blockNumber": "0x5d0ba2",
      "gasUsed": "0xf0e5",
      "effectiveGasPrice": "0x556ed5b8c",
      "from": "0x182d0e24224193eb885a108a6246d1a3470e4613",
      "to": "0x779877a7b0d9e8603169ddbd7836e478b4624789",
      "contractAddress": null
    }
  ],
  "libraries": [],
  "pending": [],
  "returns": {},
  "timestamp": 1718263502,
  "chain": 11155111,
  "commit": "4503d52"
}